:08000000803102288731FC2F3A
:100E8E0016302100970008007108F8007008F7006E
:100E9E0008007108FC007008FB0008007108FA00D9
:100EAE007008F900080038302100990098012200DE
:100EBE0096010800F0002000111E662F672F622F8A
:100ECE00700823009A000800873178278731873110
:100EDE005A278731873147278731873193278731C3
:100EEE000800220090018C018D018E010830210036
:100EFE009000FE308C00FF308D00BF308E003F30F2
:100F0E0023008D003D308C00240090018D012100C6
:100F1E00951722009D010800083023009F00903095
:100F2E009D0024309E000C309B009C010030F00090
:100F3E000030F1008731502787310030F00000304B
:100F4E00F1008731552787310030F0000030F10075
:100F5E0087314B278731FD01080087316B27873199
:100F6E0087319327873122000C100030F3000130B7
:100F7E00F40020008C18C42FC52FC02F8C1CC82F36
:100F8E00C92FC52F22000C14F501F601FF30F3070F
:100F9E00FF30F43D0130F5070030F63D7608803A1B
:100FAE00F20081307202031DDE2F00307502031C29
:100FBE00E12FE22FCD2F22000C1076037504031DB6
:100FCE00E92FEA2FF52F73087404031DEF2FF02F6E
:100FDE00F52F2E30873161278731BC2F4130873175
:100FEE0061278731BC2F80310228FD012000873117
:020FFE00B42F0E
:020000040001F9
:04000E00E43FFF3E8E
:00000001FF
